:100000009696121212961212960202020202020230
:100010009696969696969696969696969696969680
:100020009696129696061212969606969696C21274
:100030009696929696061212969696969696121204
:100040009696129696051212969612969696041207
:1000500096961396960696129696129696969612DF
:1000600096961296960600129696129696960212FA
:100070009696969696969696969696969696121228
:100080009696129696969696129600009696969644
:10009000969612969612121296961296969612129C
:1000A0009696129696129612969612969696961284
:1000B000969613969696121296960696969696127F
:1000C0009696121212961212129600120696969692
:1000D00096969696969696969696969696969696C0
:1000E000821296049606121204040402421212129C
:1000F000969612969612121296960096969612124E
:1001000096020202020202000200121212121200F1
:1001100006820196060682109606820596060682DB
:100120000496068205960606820496969696B6036F
:10013000B6039602960206168206161206829606E6
:100140008296060682960606829606128296061207
:1001500006960612960612961C1E96169616020211
:1001600096129612961296969616140616920002FB
:1001700000960612061612200202204202161616D9
:1001800096200242161202060606120606120606FD
:1001900012060612060612060612160612120606A7
:1001A000129202060612060612060612060612062B
:1001B0000612060602061612121200820016169683
:1001C0009696820420042016042004201216161687
:1001D0001616161616120205821636160602120694
:1001E0000206061206161414000600120606121065
:1001F0000616000600120606121800000000000095
:00000001FF
